{"abi":[{"type":"function","name":"balanceOf","inputs":[{"name":"","type":"address","internalType":"address"}],"outputs":[{"name":"","type":"uint256","internalType":"uint256"}],"stateMutability":"view"},{"type":"function","name":"mint","inputs":[{"name":"to","type":"address","internalType":"address"},{"name":"amount","type":"uint256","internalType":"uint256"}],"outputs":[],"stateMutability":"nonpayable"},{"type":"function","name":"name","inputs":[],"outputs":[{"name":"","type":"string","internalType":"string"}],"stateMutability":"view"},{"type":"function","name":"transfer","inputs":[{"name":"to","type":"address","internalType":"address"},{"name":"amount","type":"uint256","internalType":"uint256"}],"outputs":[{"name":"","type":"bool","internalType":"bool"}],"stateMutability":"nonpayable"}],"bytecode":{"object":"0x608080604052346100c2575f54600190600181811c911680156100b8575b60208210146100a457601f811161005e575b7f4d6f636b455243323045324500000000000000000000000000000000000000185f5561032383816100c78239f35b5f8052601f0160051c7f290decd9548b62a8d60345a988386fc84ba6bc95484008f6362f93160ef3e563908101905b81811061009a575061002f565b5f8155820161008d565b634e487b7160e01b5f52602260045260245ffd5b90607f169061001d565b5f80fdfe60806040908082526004361015610014575f80fd5b5f3560e01c90816306fdde031461016e5750806340c10f191461013257806370a08231146100fb5763a9059cbb1461004a575f80fd5b346100f757806003193601126100f7576100626102ca565b90602435335f52600160205280825f2054106100cd57335f526001602052815f209283548281039081116100b9576020945560018060a01b03165f52600183526100b0825f209182546102e0565b90555160018152f35b634e487b7160e01b5f52601160045260245ffd5b815162461bcd60e51b815260206004820152600360248201526218985b60ea1b6044820152606490fd5b5f80fd5b50346100f75760203660031901126100f7576020906001600160a01b036101206102ca565b165f5260018252805f20549051908152f35b50346100f757806003193601126100f7576001600160a01b036101536102ca565b165f5260016020525f2061016a60243582546102e0565b9055005b82346100f7575f3660031901126100f7575f905f54926001928460011c93600186169081156102c0575b60209687871083146102ac57868552879290811561028d5750600114610239575b505081929350601f801993849203011681019381851067ffffffffffffffff861117610225579084929183855280845281519182828601525f5b83811061020f5750505f84830186015250601f01168101030190f35b81810183015188820188015287955082016101f3565b634e487b7160e01b5f52604160045260245ffd5b5f8080529192507f290decd9548b62a8d60345a988386fc84ba6bc95484008f6362f93160ef3e5635b86831061027a575093945084935082010184866101b9565b8054858401850152918301918101610262565b60ff191683860152509394859450151560051b830101905084866101b9565b634e487b7160e01b5f52602260045260245ffd5b94607f1694610198565b600435906001600160a01b03821682036100f757565b919082018092116100b95756fea26469706673582212206f71aab1a841a306a68c8adb8455b03a95f9c1277376b7e0aa4e9ff0894d883364736f6c63430008180033","linkReferences":{}},"methodIdentifiers":{"balanceOf(address)":"70a08231","mint(address,uint256)":"40c10f19","name()":"06fdde03","transfer(address,uint256)":"a9059cbb"},"id":0}