{"abi":[{"type":"function","name":"mint","inputs":[{"name":"to","type":"address","internalType":"address"},{"name":"tokenId","type":"uint256","internalType":"uint256"}],"outputs":[],"stateMutability":"nonpayable"},{"type":"function","name":"ownerOf","inputs":[{"name":"","type":"uint256","internalType":"uint256"}],"outputs":[{"name":"","type":"address","internalType":"address"}],"stateMutability":"view"},{"type":"function","name":"safeTransferFrom","inputs":[{"name":"from","type":"address","internalType":"address"},{"name":"to","type":"address","internalType":"address"},{"name":"tokenId","type":"uint256","internalType":"uint256"}],"outputs":[],"stateMutability":"nonpayable"}],"bytecode":{"object":"0x60808060405234610016576101d2908161001b8239f35b5f80fdfe6040608081526004361015610012575f80fd5b5f3560e01c806340c10f191461013e57806342842e0e1461006e57636352211e1461003b575f80fd5b3461006a57602036600319011261006a576020906004355f525f825260018060a01b03815f2054169051908152f35b5f80fd5b503461006a57606036600319011261006a57610088610186565b6001600160a01b0360243581811693929084900361006a5760443591825f525f60205280845f205416911680910361010e5733036100dd575f90815260208190522080546001600160a01b0319169091179055005b815162461bcd60e51b815260206004820152600a6024820152693737ba103437b63232b960b11b6044820152606490fd5b825162461bcd60e51b81526020600482015260096024820152683737ba1037bbb732b960b91b6044820152606490fd5b503461006a578060031936011261006a57610157610186565b906024355f525f6020525f209060018060a01b03166bffffffffffffffffffffffff60a01b8254161790555f80f35b600435906001600160a01b038216820361006a5756fea264697066735822122049401d9e87808f11f7668fec4322bf5f03416da37232cb641520c6574c70b8f964736f6c63430008180033","linkReferences":{}},"methodIdentifiers":{"mint(address,uint256)":"40c10f19","ownerOf(uint256)":"6352211e","safeTransferFrom(address,address,uint256)":"42842e0e"},"id":0}