{"abi":[{"type":"function","name":"balanceOf","inputs":[{"name":"account","type":"address","internalType":"address"},{"name":"id","type":"uint256","internalType":"uint256"}],"outputs":[{"name":"","type":"uint256","internalType":"uint256"}],"stateMutability":"view"},{"type":"function","name":"balances","inputs":[{"name":"","type":"uint256","internalType":"uint256"},{"name":"","type":"address","internalType":"address"}],"outputs":[{"name":"","type":"uint256","internalType":"uint256"}],"stateMutability":"view"},{"type":"function","name":"mint","inputs":[{"name":"to","type":"address","internalType":"address"},{"name":"id","type":"uint256","internalType":"uint256"},{"name":"amount","type":"uint256","internalType":"uint256"}],"outputs":[],"stateMutability":"nonpayable"},{"type":"function","name":"safeTransferFrom","inputs":[{"name":"from","type":"address","internalType":"address"},{"name":"to","type":"address","internalType":"address"},{"name":"id","type":"uint256","internalType":"uint256"},{"name":"amount","type":"uint256","internalType":"uint256"},{"name":"","type":"bytes","internalType":"bytes"}],"outputs":[],"stateMutability":"nonpayable"}],"bytecode":{"object":"0x60808060405234610016576102ca908161001b8239f35b5f80fdfe6080604081815260049182361015610015575f80fd5b5f3560e01c908162fdd58e1461020757508063156e29f6146101c45780631f320331146101865763f242432a1461004a575f80fd5b346101825760a036600319011261018257610063610247565b9061006c61025d565b6044356064359360843567ffffffffffffffff808211610182573660238301121561018257818801359081116101825736910160240111610182576001600160a01b03908116913383900361015257805f526020925f8452855f20815f52845286865f20541061012957815f525f8452855f20905f528352845f2080549087820391821161011657610112979850555f525f8252835f2092165f52525f20918254610273565b9055005b601189634e487b7160e01b5f525260245ffd5b855162461bcd60e51b8152808901859052600360248201526218985b60ea1b6044820152606490fd5b845162461bcd60e51b8152602081890152600a6024820152693737ba103437b63232b960b11b6044820152606490fd5b5f80fd5b50346101825780600319360112610182576020916101a261025d565b90355f525f8352815f209060018060a01b03165f528252805f20549051908152f35b5034610182576060366003190112610182576101de610247565b6024355f525f602052815f209060018060a01b03165f526020525f206101126044358254610273565b905034610182578160031936011261018257602091610224610247565b6024355f9081528085528281206001600160a01b03909216815290845220548152f35b600435906001600160a01b038216820361018257565b602435906001600160a01b038216820361018257565b9190820180921161028057565b634e487b7160e01b5f52601160045260245ffdfea2646970667358221220bea911a2d10fa367989b236219c68614aba19c45c32e9c9672af30d9ee1275a964736f6c63430008180033","linkReferences":{}},"methodIdentifiers":{"balanceOf(address,uint256)":"00fdd58e","balances(uint256,address)":"1f320331","mint(address,uint256,uint256)":"156e29f6","safeTransferFrom(address,address,uint256,uint256,bytes)":"f242432a"},"id":0}