{"abi":[{"type":"constructor","inputs":[{"name":"k1_","type":"address","internalType":"address"},{"name":"k2_","type":"address","internalType":"address"},{"name":"k3_","type":"address","internalType":"address"}],"stateMutability":"nonpayable"},{"type":"receive","stateMutability":"payable"},{"type":"function","name":"DOMAIN_SEPARATOR","inputs":[],"outputs":[{"name":"","type":"bytes32","internalType":"bytes32"}],"stateMutability":"view"},{"type":"function","name":"GATE_CHAIN_ID","inputs":[],"outputs":[{"name":"","type":"uint256","internalType":"uint256"}],"stateMutability":"view"},{"type":"function","name":"K1","inputs":[],"outputs":[{"name":"","type":"address","internalType":"address"}],"stateMutability":"view"},{"type":"function","name":"K2","inputs":[],"outputs":[{"name":"","type":"address","internalType":"address"}],"stateMutability":"view"},{"type":"function","name":"K3","inputs":[],"outputs":[{"name":"","type":"address","internalType":"address"}],"stateMutability":"view"},{"type":"function","name":"authorizeIntent","inputs":[{"name":"intentHash","type":"bytes32","internalType":"bytes32"},{"name":"sig","type":"bytes","internalType":"bytes"}],"outputs":[],"stateMutability":"nonpayable"},{"type":"function","name":"computeAuthorizationDigest","inputs":[{"name":"intentHash","type":"bytes32","internalType":"bytes32"}],"outputs":[{"name":"","type":"bytes32","internalType":"bytes32"}],"stateMutability":"view"},{"type":"function","name":"computeIntentHash","inputs":[{"name":"kind","type":"uint8","internalType":"enum SecureGate.AssetKind"},{"name":"token","type":"address","internalType":"address"},{"name":"id","type":"uint256","internalType":"uint256"},{"name":"amount","type":"uint256","internalType":"uint256"},{"name":"nonce","type":"bytes32","internalType":"bytes32"},{"name":"deadline","type":"uint256","internalType":"uint256"}],"outputs":[{"name":"","type":"bytes32","internalType":"bytes32"}],"stateMutability":"view"},{"type":"function","name":"executeIntent","inputs":[{"name":"intentHash","type":"bytes32","internalType":"bytes32"}],"outputs":[],"stateMutability":"nonpayable"},{"type":"function","name":"intents","inputs":[{"name":"","type":"bytes32","internalType":"bytes32"}],"outputs":[{"name":"kind","type":"uint8","internalType":"enum SecureGate.AssetKind"},{"name":"token","type":"address","internalType":"address"},{"name":"id","type":"uint256","internalType":"uint256"},{"name":"amount","type":"uint256","internalType":"uint256"},{"name":"nonce","type":"bytes32","internalType":"bytes32"},{"name":"deadline","type":"uint256","internalType":"uint256"},{"name":"authorized","type":"bool","internalType":"bool"},{"name":"executed","type":"bool","internalType":"bool"},{"name":"exists","type":"bool","internalType":"bool"}],"stateMutability":"view"},{"type":"function","name":"onERC1155BatchReceived","inputs":[{"name":"","type":"address","internalType":"address"},{"name":"","type":"address","internalType":"address"},{"name":"","type":"uint256[]","internalType":"uint256[]"},{"name":"","type":"uint256[]","internalType":"uint256[]"},{"name":"","type":"bytes","internalType":"bytes"}],"outputs":[{"name":"","type":"bytes4","internalType":"bytes4"}],"stateMutability":"pure"},{"type":"function","name":"onERC1155Received","inputs":[{"name":"","type":"address","internalType":"address"},{"name":"","type":"address","internalType":"address"},{"name":"","type":"uint256","internalType":"uint256"},{"name":"","type":"uint256","internalType":"uint256"},{"name":"","type":"bytes","internalType":"bytes"}],"outputs":[{"name":"","type":"bytes4","internalType":"bytes4"}],"stateMutability":"pure"},{"type":"function","name":"onERC721Received","inputs":[{"name":"","type":"address","internalType":"address"},{"name":"","type":"address","internalType":"address"},{"name":"","type":"uint256","internalType":"uint256"},{"name":"","type":"bytes","internalType":"bytes"}],"outputs":[{"name":"","type":"bytes4","internalType":"bytes4"}],"stateMutability":"pure"},{"type":"function","name":"queueERC1155","inputs":[{"name":"token","type":"address","internalType":"address"},{"name":"tokenId","type":"uint256","internalType":"uint256"},{"name":"amount","type":"uint256","internalType":"uint256"},{"name":"nonce","type":"bytes32","internalType":"bytes32"},{"name":"deadline","type":"uint256","internalType":"uint256"}],"outputs":[{"name":"intentHash","type":"bytes32","internalType":"bytes32"}],"stateMutability":"nonpayable"},{"type":"function","name":"queueERC20","inputs":[{"name":"token","type":"address","internalType":"address"},{"name":"amount","type":"uint256","internalType":"uint256"},{"name":"nonce","type":"bytes32","internalType":"bytes32"},{"name":"deadline","type":"uint256","internalType":"uint256"}],"outputs":[{"name":"intentHash","type":"bytes32","internalType":"bytes32"}],"stateMutability":"nonpayable"},{"type":"function","name":"queueERC721","inputs":[{"name":"token","type":"address","internalType":"address"},{"name":"tokenId","type":"uint256","internalType":"uint256"},{"name":"nonce","type":"bytes32","internalType":"bytes32"},{"name":"deadline","type":"uint256","internalType":"uint256"}],"outputs":[{"name":"intentHash","type":"bytes32","internalType":"bytes32"}],"stateMutability":"nonpayable"},{"type":"function","name":"recordAttemptedDestination","inputs":[{"name":"attempted","type":"address","internalType":"address"}],"outputs":[],"stateMutability":"nonpayable"},{"type":"function","name":"supportsInterface","inputs":[{"name":"interfaceId","type":"bytes4","internalType":"bytes4"}],"outputs":[{"name":"","type":"bool","internalType":"bool"}],"stateMutability":"pure"},{"type":"function","name":"suspectDestination","inputs":[{"name":"","type":"address","internalType":"address"}],"outputs":[{"name":"","type":"bool","internalType":"bool"}],"stateMutability":"view"},{"type":"function","name":"usedNonces","inputs":[{"name":"","type":"bytes32","internalType":"bytes32"}],"outputs":[{"name":"","type":"bool","internalType":"bool"}],"stateMutability":"view"},{"type":"event","name":"IntentAuthorized","inputs":[{"name":"intentHash","type":"bytes32","indexed":true,"internalType":"bytes32"}],"anonymous":false},{"type":"event","name":"IntentExecuted","inputs":[{"name":"intentHash","type":"bytes32","indexed":true,"internalType":"bytes32"},{"name":"token","type":"address","indexed":true,"internalType":"address"},{"name":"k3","type":"address","indexed":true,"internalType":"address"}],"anonymous":false},{"type":"event","name":"IntentQueued","inputs":[{"name":"intentHash","type":"bytes32","indexed":true,"internalType":"bytes32"},{"name":"kind","type":"uint8","indexed":false,"internalType":"enum SecureGate.AssetKind"},{"name":"token","type":"address","indexed":true,"internalType":"address"},{"name":"id","type":"uint256","indexed":false,"internalType":"uint256"},{"name":"amount","type":"uint256","indexed":false,"internalType":"uint256"}],"anonymous":false},{"type":"event","name":"NonK3DestinationCaptured","inputs":[{"name":"attempted","type":"address","indexed":true,"internalType":"address"}],"anonymous":false},{"type":"error","name":"AlreadyExecuted","inputs":[]},{"type":"error","name":"BadSignature","inputs":[]},{"type":"error","name":"DelegatecallBlocked","inputs":[]},{"type":"error","name":"IntentExists","inputs":[]},{"type":"error","name":"IntentMissing","inputs":[]},{"type":"error","name":"InvalidAddress","inputs":[]},{"type":"error","name":"InvalidDeadline","inputs":[]},{"type":"error","name":"InvalidNonce","inputs":[]},{"type":"error","name":"NotAuthorized","inputs":[]},{"type":"error","name":"NotK1","inputs":[]},{"type":"error","name":"TransferFailed","inputs":[]}],"bytecode":{"object":"0x61014034620002c857601f62001b7638819003918201601f19168301926001600160401b039290918385118386101762000262578160609284926040978852833981010312620002c8576200005481620002e8565b9062000070846200006860208401620002e8565b9201620002e8565b916001600160a01b0380821680158015620002bd575b8015620002b2575b620002a1578184169182821492831562000294575b50821562000287575b5050620002765760805260a05260c0524660e05261010091308352600a60208251620000d881620002cc565b82815201695365637572654761746560b01b81522090600160208251620000ff81620002cc565b82815201603160f81b8152209080519160208301937f8b73c3c69bb8fe3d512ecc4cf759cc79239f7b179b0ffacaa9a75d522b39400f85528284015260608301524660808301523060a083015260a0825260c08201938285109085111762000262578390525190206101209081526118789283620002fe84396080518381816101e3015281816104680152818161087601528181610bf001528181610d8d0152611216015260a051838181610340015261113a015260c05183818161051f015281816107d50152818161092c01528181610b9a01528181610c7101528181610e5e01528181610eab01528181610fb301528181611056015281816112cd0152611741015260e05183818161014d015281816105540152818161080c0152818161096101528181611302015261176801525182818161025501528181610492015281816108a001528181610db7015261124001525181818161118001526117c80152f35b634e487b7160e01b5f52604160045260245ffd5b845163e6c4247b60e01b8152600490fd5b85161490505f80620000ac565b8682161492505f620000a3565b865163e6c4247b60e01b8152600490fd5b50818516156200008e565b508184161562000086565b5f80fd5b604081019081106001600160401b038211176200026257604052565b51906001600160a01b0382168203620002c85756fe60806040818152600480361015610020575b505050361561001e575f80fd5b005b5f9260e05f35811c91826301ffc9a71461153257508163150b7a02146114dd5781632a513df6146111df57816334b98663146111a35781633644e515146111695781635b3b06ae146111265781637a1c9ca714610d6a5781639021578a14610cd0578163928335aa14610ca8578163a379879214610bc9578163a3ec761d14610b84578163bc197c8114610af9578163bdf0158b14610855578163bf9eafd614610764578163d9a2397c1461044957508063e6234ce914610212578063e89f8be7146101ce578063f23a6e6114610174578063f7c69946146101355763feb61724036100115734610131576020366003190112610131578160209360ff923581526001855220541690519015158152f35b8280fd5b505034610170578160031936011261017057602090517f00000000000000000000000000000000000000000000000000000000000000008152f35b5080fd5b5091346101cb5760a03660031901126101cb5761018f61159c565b506101986115b2565b506084359067ffffffffffffffff82116101cb57506020926101bc913691016115c8565b50505163f23a6e6160e01b8152f35b80fd5b505034610170578160031936011261017057517f00000000000000000000000000000000000000000000000000000000000000006001600160a01b03168152602090f35b50903461013157806003193601126101315781359160243567ffffffffffffffff81116104455761024690369083016115c8565b90929091906001600160a01b037f000000000000000000000000000000000000000000000000000000000000000081163003610437578587528660205281872093600585019586549560ff8760101c16156104275760ff87166104175785015442116104075760416102b7896116d8565b92036103f757602081013590848101358a1a7f7fffffffffffffffffffffffffffffff5d576e7357a4501ddfe92f46681b20a083116103bd57601b81106103d8575b60ff16601b811415806103cd575b6103bd57928a926080926020958851938452868401523587830152606082015282805260015afa156103b357808751169081156103a4577f0000000000000000000000000000000000000000000000000000000000000000160361039757505060ff191660011790557f51ea2bb1b1eb3a90ff36f8b9bf18bcfe1eb21cb76a39f0f8eebc52276df1f8ea8280a280f35b51635cd5d23360e01b8152fd5b505051635cd5d23360e01b8152fd5b81513d88823e3d90fd5b8551635cd5d23360e01b81528790fd5b50601c811415610307565b601b0160ff8111156102f957634e487b7160e01b8b526011875260248bfd5b50505051635cd5d23360e01b8152fd5b50505051631da7447960e21b8152fd5b845163ea8e4eb560e01b81528690fd5b845163350f7c5d60e01b81528690fd5b5051632b90e4eb60e11b8152fd5b8480fd5b90508284346101cb575061045c36611648565b946001600160a01b03937f00000000000000000000000000000000000000000000000000000000000000008516330361075457847f0000000000000000000000000000000000000000000000000000000000000000163003610744578416938415610734578215801561071f575b61070f57428711156106ff57825f52600192602098848a52875f208560ff198254161790558751928a8401905f805160206118238339815191528252868a8601528860608601528760808601528660a08601527f00000000000000000000000000000000000000000000000000000000000000001660c08501528285850152610100938a858201527f00000000000000000000000000000000000000000000000000000000000000006101208201526101403081830152815261058c816116bb565b51902098895f525f8b5260ff60058a5f20015460101c166106f05790899392918951926105b88461169e565b8784528c8085018b81528c8601908b82525f60608801938c85526080890195865260a0890196875260c089019b828d52890199828b5289019a8d8c528252528d5f2096519060038210156106dd57958f9c9996957ff58f445bb2ee96ff2af3d7987adf343a0cd4246d5e0ff3504f21ef6c4a61630a9c9995610699956005958b9560609f9c9a60ff6106b09c5491610100600160a81b03905160081b169216906affffffffffffffffffffff60a81b1617178655518c86015551600285015551600384015551908201550194511515859060ff801983541691151516179055565b51835461ff00191690151560081b61ff0016178355565b51151562ff000082549160101b169062ff000019161790558651918183528983015286820152a351908152f35b602187634e487b7160e01b5f525260245ffd5b5087516301d761cd60e71b8152fd5b8551631da7447960e21b81528890fd5b8551633ab3447f60e11b81528890fd5b50825f52600160205260ff865f2054166104ca565b855163e6c4247b60e01b81528890fd5b8551632b90e4eb60e11b81528890fd5b8551630780de2b60e41b81528890fd5b919050346108515760c03660031901126108515735906003821015610851576020935061078f6115b2565b908351916107b3868401945f805160206118238339815191528652868501906115f6565b6001600160a01b039081166060840152604435608084015260643560a08401527f00000000000000000000000000000000000000000000000000000000000000001660c08301526084359082015260a4356101008201527f000000000000000000000000000000000000000000000000000000000000000061012082015230610140808301919091528152610847816116bb565b5190209051908152f35b8380fd5b90508284346101cb575061086836611648565b9490926001600160a01b03907f00000000000000000000000000000000000000000000000000000000000000008216330361075457817f00000000000000000000000000000000000000000000000000000000000000001630036107445781169384156107345780158015610ae4575b61070f57428711156106ff57805f5260209760018952865f20600160ff19825416179055865192898401905f8051602061182383398151915282525f898601528760608601525f60808601528660a08601527f00000000000000000000000000000000000000000000000000000000000000001660c085015282858501526101009389858201527f000000000000000000000000000000000000000000000000000000000000000061012082015261014030818301528152610999816116bb565b51902097885f525f8a5260ff6005895f20015460101c16610ad55790889392918851926109c58461169e565b5f84528b8085018a81528b8601905f82525f60608801938c85526080890195865260a0890196875260c089019b828d52890199828b5289019a60018c528252528c5f2096519060038210156106dd5795610aa7958f9c9995610699956005958b957ff58f445bb2ee96ff2af3d7987adf343a0cd4246d5e0ff3504f21ef6c4a61630a9f9c9b60609f9c60ff905491610100600160a81b03905160081b169216906affffffffffffffffffffff60a81b161717865551600186015551600285015551600384015551908201550194511515859060ff801983541691151516179055565b51151562ff000082549160101b169062ff000019161790558551905f82525f8983015286820152a351908152f35b5086516301d761cd60e71b8152fd5b50805f52600160205260ff865f2054166108d8565b505091346101cb5760a03660031901126101cb57610b1561159c565b50610b1e6115b2565b5067ffffffffffffffff9060443582811161017057610b409036908601611617565b505060643582811161017057610b599036908601611617565b50506084359182116101cb5750602092610b75913691016115c8565b50505163bc197c8160e01b8152f35b50505034610170578160031936011261017057517f00000000000000000000000000000000000000000000000000000000000000006001600160a01b03168152602090f35b5050903461013157602036600319011261013157610be561159c565b6001600160a01b03927f000000000000000000000000000000000000000000000000000000000000000084163303610c9a57508216918215159081610c6d575b50610c2e578280f35b81835260026020528220805460ff191660011790557fb921dd23d8fec108339f59caa15a8b090534624dcd51ad6b0b4dee50830c44578280a25f808280f35b90507f0000000000000000000000000000000000000000000000000000000000000000168214155f610c25565b8251630780de2b60e41b8152fd5b505091346101cb5760203660031901126101cb5750610cc9602092356116d8565b9051908152f35b8493915034610851576020366003190112610851579060ff9181610120958535815280602052208054946001820154600283015490600560038501549385015494015495805198610d238a8a83166115f6565b60018060a01b039060081c1660208a01528801526060870152608086015260a0850152828216151560c0850152828260081c1615159084015260101c161515610100820152f35b505090346110c5576020806003193601126110c5578235926001600160a01b03927f00000000000000000000000000000000000000000000000000000000000000008416330361111957837f000000000000000000000000000000000000000000000000000000000000000016300361110c57845f525f8352805f209260058401805460ff8160101c16156110fc5760ff8116156110ec5760ff8160081c166110dc578486015442116104075761ff001916610100179055835460ff811660038110156110c95788919080610f6e5750508186865460081c16604460028801548651948593849263a9059cbb60e01b84528c7f0000000000000000000000000000000000000000000000000000000000000000168b85015260248401525af1918215610f64578892610f00575b505015610ef357505081905b5460081c16907f000000000000000000000000000000000000000000000000000000000000000016917f39deaa45521a4e58b54c29b5d9dc173edfd7134ce60aeb4bb3047f39fed9ba4e8480a480f35b516312171d8360e31b8152fd5b809192503d8211610f5d575b601f8101601f1916830167ffffffffffffffff811184821017610f4a578452820182900312610f4657518015158103610f46575f80610e97565b8680fd5b604186634e487b7160e01b5f525260245ffd5b503d610f0c565b83513d8a823e3d90fd5b6001919294989796959350145f14611018575083835460081c16906001840154823b156108515760648492838a519586948593632142170760e11b855230908501528a7f000000000000000000000000000000000000000000000000000000000000000016602485015260448401525af1801561100e5784959650610ff5575b5050610ea3565b61100191929350611676565b610851578190845f610fee565b86513d84823e3d90fd5b6001840154600285015496979596949593509060081c8616803b156110c5575f928360c49286519788958694637921219560e11b865230908601528b7f00000000000000000000000000000000000000000000000000000000000000001660248601526044850152606484015260a060848401528160a48401525af19081156110bc57506110a9575b508190610ea3565b6110b4919450611676565b5f92816110a1565b513d5f823e3d90fd5b5f80fd5b602185634e487b7160e01b5f525260245ffd5b50505051630dc1019760e01b8152fd5b5050505163ea8e4eb560e01b8152fd5b5050505163350f7c5d60e01b8152fd5b51632b90e4eb60e11b8152fd5b51630780de2b60e41b8152fd5b83346110c5575f3660031901126110c557517f00000000000000000000000000000000000000000000000000000000000000006001600160a01b03168152602090f35b83346110c5575f3660031901126110c557602090517f00000000000000000000000000000000000000000000000000000000000000008152f35b83346110c55760203660031901126110c5576020906001600160a01b036111c861159c565b165f526002825260ff815f20541690519015158152f35b905082346110c55760a03660031901126110c5576111fb61159c565b608435926064359160243591604435916001600160a01b03907f0000000000000000000000000000000000000000000000000000000000000000821633036114cd57817f00000000000000000000000000000000000000000000000000000000000000001630036114bd5781169485156114ad5780158015611498575b611488574288111561147857805f5260209860018a52875f20600160ff198254161790558751928a8401905f80516020611823833981519152825260028a8601528860608601528760808601528660a08601527f00000000000000000000000000000000000000000000000000000000000000001660c08501528285850152610100938a858201527f00000000000000000000000000000000000000000000000000000000000000006101208201526101403081830152815261133a816116bb565b51902098895f525f8b5260ff60058a5f20015460101c166106f05790899392918951926113668461169e565b600284528c8085018b81528c8601908b82525f60608801938c85526080890195865260a0890196875260c089019b828d52890199828b5289019a60018c528252528d5f2096519060038210156106dd57958f9c9996957ff58f445bb2ee96ff2af3d7987adf343a0cd4246d5e0ff3504f21ef6c4a61630a9c9995610699956005958b9560609f9c9a60ff61144a9c5491610100600160a81b03905160081b169216906affffffffffffffffffffff60a81b161717865551600186015551600285015551600384015551908201550194511515859060ff801983541691151516179055565b51151562ff000082549160101b169062ff00001916179055865191600283528983015286820152a351908152f35b8651631da7447960e21b81528990fd5b8651633ab3447f60e11b81528990fd5b50805f52600160205260ff875f205416611278565b865163e6c4247b60e01b81528990fd5b8651632b90e4eb60e11b81528990fd5b8651630780de2b60e41b81528990fd5b8284346110c55760803660031901126110c5576114f861159c565b506115016115b2565b5060643567ffffffffffffffff81116110c557602092611523913691016115c8565b505051630a85bd0160e11b8152f35b83346110c55760203660031901126110c557359063ffffffff60e01b82168092036110c5576020916301ffc9a760e01b811490811561158b575b811561157a575b5015158152f35b630271189760e51b14905083611573565b630a85bd0160e11b8114915061156c565b600435906001600160a01b03821682036110c557565b602435906001600160a01b03821682036110c557565b9181601f840112156110c55782359167ffffffffffffffff83116110c557602083818601950101116110c557565b9060038210156116035752565b634e487b7160e01b5f52602160045260245ffd5b9181601f840112156110c55782359167ffffffffffffffff83116110c5576020808501948460051b0101116110c557565b60809060031901126110c5576004356001600160a01b03811681036110c55790602435906044359060643590565b67ffffffffffffffff811161168a57604052565b634e487b7160e01b5f52604160045260245ffd5b610120810190811067ffffffffffffffff82111761168a57604052565b610160810190811067ffffffffffffffff82111761168a57604052565b805f525f6020526040805f209160ff600584015460101c1615611811576003600484015493015482519360208501927fced0536620e4d38a74275fc3d0b4673ed04b0e5ec0f39b4f0ccc1ce1cce77f998452848601526060850152608084015260018060a01b037f00000000000000000000000000000000000000000000000000000000000000001660a08401527f000000000000000000000000000000000000000000000000000000000000000060c08401523060e084015260e0835261010083019167ffffffffffffffff918484108385111761168a578382528451902061190160f01b61012086019081527f00000000000000000000000000000000000000000000000000000000000000006101228701526101428601919091526042845293610180019182118383101761168a575251902090565b815163350f7c5d60e01b8152600490fdfe1e790325b92daad089ca88ea17825c13a8c87f5cb76de6433dae3642333c531da26469706673582212206ea7e68b99a4ea1bbfb13f16ecc1b5291865d9147ed64d0051494bbbcd57537664736f6c63430008180033","linkReferences":{}},"methodIdentifiers":{"DOMAIN_SEPARATOR()":"3644e515","GATE_CHAIN_ID()":"f7c69946","K1()":"e89f8be7","K2()":"5b3b06ae","K3()":"a3ec761d","authorizeIntent(bytes32,bytes)":"e6234ce9","computeAuthorizationDigest(bytes32)":"928335aa","computeIntentHash(uint8,address,uint256,uint256,bytes32,uint256)":"bf9eafd6","executeIntent(bytes32)":"7a1c9ca7","intents(bytes32)":"9021578a","onERC1155BatchReceived(address,address,uint256[],uint256[],bytes)":"bc197c81","onERC1155Received(address,address,uint256,uint256,bytes)":"f23a6e61","onERC721Received(address,address,uint256,bytes)":"150b7a02","queueERC1155(address,uint256,uint256,bytes32,uint256)":"2a513df6","queueERC20(address,uint256,bytes32,uint256)":"bdf0158b","queueERC721(address,uint256,bytes32,uint256)":"d9a2397c","recordAttemptedDestination(address)":"a3798792","supportsInterface(bytes4)":"01ffc9a7","suspectDestination(address)":"34b98663","usedNonces(bytes32)":"feb61724"},"id":0}